:020000040800F2
:1000000010120020D50000081951000871450008A1
:1000100000000000000000000000000000000000E0
:10002000000000000000000000000000855A0008E9
:100030007F07000800000000E9560008495B00083F
:10004000E9000008E900000809580008E900000874
:10005000E9000008E9000008E9000008810700083D
:10006000E9000008E9000008E9000008E9000008CC
:10007000E9000008E900000800000000E9000008AD
:10008000000000008D5C000800000000000000007F
:10009000E900000800000000E9000008E90000088D
:1000A000E9000008E9000008E9000008E90000088C
:1000B000E9000008E9000008E9000008E96B000811
:1000C0000348854600F066FA00480047B17A000808
:1000D000101200200548804705480047FEE7FEE76C
:1000E000FEE7FEE7FEE7FEE7FEE70000F55B00083F
:1000F000C100000830B50B46014600202022012433
:1001000009E00D46D5409D4205D31D469540491B4B
:100110002546954040191546521E002DF1DC30BD94
:100120000549064A08685043054A80180860400897
:100130007047014908607047E00000206D4EC641DD
:100140003930000003460B439B0703D009E008C980
:10015000121F08C0042AFAD203E00B780370401C77
:10016000491C521EF9D27047D2B201E00270401C05
:10017000491EFBD270470022F6E710B513460A4627
:1001800004461946FFF7F0FF204610BD30B504467F
:100190000020034600E05B1C934203D2E05CCD5C90
:1001A000401BF8D030BD03460A780270401C491C41
:1001B000002AF9D118467047F0B51FB488B00B99E2
:1001C0000998002448400999C00F4900490809913D
:1001D000C0070B990090490049080B9109990898AC
:1001E000A64608431CD00B990A98084318D00998D2
:1001F00001244000420D4800410D099824050003E8
:10020000000B204309900B980003000B20430B9038
:1002100050181C494018002201901446104605E071
:10022000002001460DB0F0BD032801DA034600E0CE
:1002300003239C46C11A0AAE0AE05F0008ADED5BDD
:100240004F00F75B7D430027AA187C41491C5B1EC9
:100250006145F2DD410004AB5A522104120C0A43FD
:10026000240C401C0828DFDB01980290009970469E
:1002700001910090059B049A0799069800F037F9C0
:10028000D0E700000DFCFFFFF0B50C465C4085B0E8
:10029000E40FE40703944C000026640859009446D8
:1002A000490802460296224321D062460A431ED0E4
:1002B0006200570D4A000E032303550D0124024628
:1002C0002C492405781B1B0B360B4018234326436F
:1002D000614600901C46501AB44103D30098401C5C
:1002E000009002E0921800985B41002803DA002099
:1002F000014605B0F0BD00200121090507468646EC
:1003000011E064461D46141BB54106D36546521BD9
:10031000B341744607430C43A646CD07400849083D
:10032000284392185B4105460D43EAD11046184315
:1003300013D06046194650407140084306D06046CD
:10034000101AB34106D20122002306E00022012345
:10035000DB0702E00122D2435310009874460105E6
:10036000381C6141029C039D0019694100F0B2F8FC
:10037000BFE70000FD03000010B5002296231146E0
:1003800000F06FF810BDC20FD207400040080BD03C
:10039000C10D0723DB01C91840020905400A1143BA
:1003A000C208400711437047002001467047CB0F39
:1003B000DB07490010B5490802460A4307D00A0D79
:1003C00007240903E401090B121B002A01DC0020A9
:1003D00010BDC900440F0C43C100E018D2058018BD
:1003E00000F037F810BD00000122D207002800DB22
:1003F000101A002900DB511A814270470122D207EE
:10040000002800DB101A002900DB511A88427047CF
:1004100010B5202A04DB0146203A9140002010BD8F
:10042000914020239C1A0346E3401943904010BD9D
:1004300010B5202A04DB0846203AD040002110BD28
:100440000B46D340D0402024A21A914008431946BD
:1004500010BD002904DA401C490001D140084000C9
:10046000704770B40024050C05D11024000402D19B
:10047000002921D01124050E01D100020834050FF6
:1004800001D10001241D850F01D18000A41C00288A
:1004900001DB4000641C002908D020252E1B0D46DE
:1004A000F540A14000D001212943084301061B1B50
:1004B000000ADB1D02D5002070BC7047DB05181850
:1004C00080180029F8DA401C4900F5D170BC4008BA
:1004D0004000704710B5002B08DA0024401C614131
:1004E00092185B411A4301D14008400010BDF0B59D
:1004F0001FB482B005460C0003D0084606F07CFB12
:1005000002E006F079FB20300246009021462846A2
:10051000FFF77EFF049B059A04460F4618431143DC
:10052000084314D0184610431BD0009840210A1AE3
:1005300018460599FFF77CFF05460E46009A059977
:100540000498FFF765FF084305D0012004E020462A
:10055000394607B0F0BD0020C11705430E432C43B8
:10056000374300990E986305401A7905E40A002282
:100570000C43FD0A0A3002D500200146E9E70105D7
:10058000101969410C9C0D9D00196941FFF7A2FFEC
:10059000DFE70000064C0125064E05E0E36807CCC6
:1005A0002B430C3C98471034B442F7D3FFF78CFD33
:1005B0006C7E00088C7E000870B50446002520681B
:1005C00080688007800F012807D120680068C00775
:1005D000C00F002801D0012000E00020002837D102
:1005E000206880681B490840002801D1012000E0F4
:1005F0000020002808D1042155200155A06D0121BB
:100600000843A065012070BD20688068012108436F
:100610002168886001F09CF80546E06C012817D03D
:100620000DE001F095F8401B0A2808D90421552057
:100630000155A06D01210843A0650120E3E7206872
:100640000068C007C00F0121484048400028E8D09A
:100650000020D8E71700008010B521482149086024
:10066000002048600121C9071E4841610021C16482
:10067000012181644164002181610721C161002160
:1006800001624162012181620021C1620163042192
:10069000C1630021816300F0FBFB002801D000F062
:1006A00077F800210F4800F091FA002801D000F0FF
:1006B0006FF80D480D4908600A4800F005FB002856
:1006C00001D000F065F8074800F054FD002801D083
:1006D00000F05EF80A21034800F01AFD10BD00008A
:1006E000002401409C070020000100209000002011
:1006F00010B5002201210520000701F022F810BDED
:1007000010B5012211460520000701F01AF810BDAE
:1007100010B50446204603F003FE204603F024FEF5
:1007200010BD10B50022012149020520000701F08B
:1007300008F8012291020520000701F002F810BD1F
:1007400010B5012251020520000700F0FAFF002237
:10075000012189020520000700F0F3FF10BD10B54C
:100760000022012149020520000700F0EAFF0022D3
:10077000012189020520000700F0E3FF10BD70474A
:1007800010B50120400300F0CDFE10BD00BFFEE714
:1007900000BFFEE700BFFEE770B506460C461546F3
:1007A000002007490860084644608560054900F05C
:1007B00015FD002801D0012070BD0020FCE70000DD
:1007C00040060020700000200749496801225202BB
:1007D0001143054A51601146496808221143024AF3
:1007E00051600021016070470020024010B500F008
:1007F00095FD00F039FD002010BD0000034A52684D
:1008000008231A43014B5A600160704700200240E0
:10081000FEB505460E4617461C4600200290019084
:100820000090012C02D11A48019012E0022C02D152
:10083000184801900DE0032C02D11748019008E000
:10084000042C02D11548019003E0052C01D1144875
:100850000190B0080090B007800F002802D00098E7
:10086000401C00900DE03946284600F01BF83F1D63
:100870002D1D0298401C029000990298884200D3D6
:1008800002E001988542EED300BF0298FEBD000051
:10089000FFD30008FFD70008FFDB0008FFDF0008D8
:1008A000FFE3000802680A60704700002248806980
:1008B00004210840042802D10220204948741E481F
:1008C0008069FF2101310840884202D110201B4974
:1008D000487419488069012149020840884202D1C0
:1008E000082016494874144880690121890208408B
:1008F000884202D10420114948740F4880690121BF
:10090000C9020840884202D120200C4948740A4894
:100910008069012149030840884202D1012007492A
:10092000487405488069012109040840884202D1C1
:10093000402002494874704700200240DC09002032
:1009400070B50446002500F003FF05460BE0601C6F
:10095000002808D0002C04D000F0FAFE401BA04272
:1009600001D9032070BD1B488069C007C00F002853
:10097000EDD118488069FF2101310840000A0028A4
:1009800022D11448806949000840400A00281BD140
:100990001048806949000840800A002814D10D4899
:1009A000806949000840C00A00280DD109488069C3
:1009B00089000840400B002806D106488069C9001C
:1009C0000840000C002803D0FFF770FF0120C9E7A2
:1009D0000020C7E700200240F8B505460E46144641
:1009E0000027042229460020FFF7D6FEA708A0070B
:1009F000800F002800D07F1C3C460AE02846316862
:100A000000F00BF8002801D00120F8BD361D2D1D87
:100A1000641E002CF2D10020F7E7F8B504460D461D
:100A2000002602272A462146384600F043FC0646A7
:100A30003046F8BD10B50F210948FFF79CFB012394
:100A4000074A0F210748FFF7E3FE0748002101602E
:100A500041600423024608210448FFF7D9FE10BD77
:100A60001406002000D000088000002000DC0008F0
:100A7000F0B587B000200590FFF7EEFD0A2000F0EA
:100A80009FFB04F027FB04900498FFF775FC01908E
:100A9000FFF779FC04463E4A3E4BFFF78DFB0022F0
:100AA0003D4B03910290FFF7EFFB0646FFF77FFCFB
:100AB00006903A490698FFF7A1FC04D30021069856
:100AC000FFF792FC02D2059807B0F0BD34490698B2
:100AD000FFF794FC02D20A20059053E031490698B2
:100AE000FFF78CFC02D2092005904BE02E490698B6
:100AF000FFF784FC02D20820059043E02B490698BA
:100B0000FFF77CFC02D2072005903BE028490698BD
:100B1000FFF774FC02D20620059033E025490698C1
:100B2000FFF76CFC02D2052005902BE022490698C5
:100B3000FFF764FC02D20420059023E01F490698C9
:100B4000FFF75CFC02D2032005901BE01C490698CD
:100B5000FFF754FC02D20220059013E019490698D1
:100B6000FFF74CFC02D2012005900BE00021069813
:100B7000FFF744FC06D213490698FFF735FC01D273
:100B800000200590104800F0EFF805989CE7000061
:100B90006666666666660A400000B0400000604017
:100BA000000040409A99394033333340CDCC2C403B
:100BB00066662640000020409A991940333313405E
:100BC000CDCC0C40333303409C07002070B5044665
:100BD0000E46002500BF5420005D012801D10220EF
:100BE00070BD01215420015500BF20688068800736
:100BF000800F012806D1206800680840002801D035
:100C0000012000E00020002837D0206880680521FE
:100C10000840012800D100E0002000280AD000BFD1
:100C200020688068022108432168886003202168C9
:100C3000086009E004215520015500BF002154201F
:100C4000015500BF0120CBE700F082FD05460EE014
:100C500000F07EFD401B0A2809D9032155200155CB
:100C600000BF00215420015500BF0320B8E72068D1
:100C70008068C007C00F0028EAD120688068012181
:100C8000C90708432168886000F062FD05460EE050
:100C900000F05EFD401B0A2809D9032155200155AB
:100CA00000BF00215420015500BF032098E72068B1
:100CB0008068C00FC0070028EAD100BF002154207F
:100CC000015500BF00208BE7024600BF5420805C26
:100CD000012801D10220704701235420835400BF12
:100CE0001068806A0B685B035B0B1843136898629B
:100CF00008684003400B184B184001239B0498429E
:100D000005D1164880685B011843144B9860086849
:100D10004003400B124B184001235B04984205D15D
:100D20000E4880685B0118430C4B986008684003CC
:100D3000400B0C4B184001231B04984205D1074877
:100D400080681B021843054B986000BF00235420A5
:100D5000835400BF0020BEE7000004480027014084
:100D6000000002440000014070B504460025002C3C
:100D700001D1012070BD02215520015520688068F5
:100D80000421084000280BD0206880680221084018
:100D9000002805D1206880681021084321688860F8
:100DA00000F0D6FC05460EE000F0D2FC401B0A28FD
:100DB00009D903215520015500BF002154200155B8
:100DC00000BF0320D6E7206880680421084000287F
:100DD000EAD100BF2068806802210843216888604A
:100DE00003202168086000BF20684068204908404F
:100DF000216848601E48C0432168086020688068F8
:100E0000012109078843216888602068C068194962
:100E100008402168C86020680069174908402168B7
:100E2000086120684069C008C000216848612068E6
:100E3000006A124908402168086220688030406BCF
:100E4000C109C90120688030416320688030406B4F
:100E5000C109C901206880304163204600F02EF9A5
:100E60000020A065002155200155002082E70000E8
:100E700060F7FFFF00023E8302FCFF3F00F000F03E
:100E800001465520405C704701460868006C704779
:100E900070B504460025002C01D1012070BD5520FD
:100EA000005D002802D1204600F012F902215520F1
:100EB000015500BF49076069884206D04900606952
:100EC000884202D0606988420CD1206800698000A5
:100ED0008008216808612068006961690843216809
:100EE000086112E0206800698000800821680861BC
:100EF0006F4880680F21890488436D4988600846DF
:100F00008068616908436A49886000BF68488068F2
:100F10000121490688436649886008468068A16CBB
:100F200049060843624988602068806801210907F2
:100F30000840002852D1206880688007800F01286F
:100F400007D120680068C007C00F002801D0012029
:100F500000E00020002837D0206880680521084084
:100F6000012800D100E0002000280AD000BF20683E
:100F70008068022108432168886003202168086096
:100F800009E004215520015500BF002154200155DE
:100F900000BF012082E700F0DBFB05460EE000F019
:100FA000D7FB401B0A2809D903215520015500BF52
:100FB00000215420015500BF03206FE7206880689E
:100FC000C007C00F0028EAD1206880680121090706
:100FD0000843216888600A2000F0F2F82068C068A1
:100FE000344908402168C860616AA0690843216AE1
:100FF0000843216B0843A16A49030843A16B4900D8
:101000000843216C0843616C89030843E16CC90300
:1010100008432168C96808432168C860206B00281C
:1010200005D02068C068616B08432168C860E06A29
:10103000012809D1A06A002806D12068C0680121D2
:10104000090408432168C8606068012816D1206837
:1010500000691949084021680861A168E0680843EF
:1010600021690843216809690843216808612068EB
:101070000069012108432168086105E020680069D2
:10108000400840002168086120684069C008C0002D
:101090002168486120684069E16908432168486126
:1010A0000020A0650121552001550020F6E6000032
:1010B000002701400102FEFF03FCFF7F0349496B4B
:1010C000012252029143014A5163704700100240CD
:1010D00010B586B004460C48C06A022108430A498C
:1010E000C8620846406B4915084307494863012018
:1010F0000190032002900020039001A9034800F012
:1011000021FA06B010BD000000100240000400509B
:10111000F8B504460D460027E06B082801D10826E3
:1011200000E00C2600F014FB074613E0681C0028C2
:1011300010D0002D04D000F00BFBC01BA84209D931
:1011400003215520015500BF00215420015500BF47
:101150000320F8BD2068006830400028E6D0606CAD
:10116000002802D10C202168086005215520015576
:101170000020EEE770B50446002500BF5420005D56
:10118000012801D1022070BD01215420015500BF6A
:101190001221552001550020A0652046FFF70CFACA
:1011A0000546012D05D02068806804210843216888
:1011B000886000BF00215420015500BF0020E2E7F5
:1011C00031B5002400F0C4FA044600BF00F0C0FAB4
:1011D000001B00998842F9D338BD0000F8B50446D9
:1011E0000E460127002500BF1D48007C012801D1C3
:1011F0000220F8BD01201A49087400BF0520000430
:10120000FFF79EFB0746002F23D1401E3060656824
:1012100018E02846FFF7D8FA05200004FFF790FBF6
:10122000074610484068082188430E494860084630
:101230004068491588430B494860002F01D035604C
:1012400006E08035A068C00161684018A842E0D877
:1012500000BF00BF00200249087400BF3846C8E73D
:10126000DC090020002002400D48406804210840AD
:10127000002810D00A484068C007C00F002804D0DA
:1012800008480749C8600848C860084804494861D8
:101290000748486101E0012070470020FCE700009A
:1012A00000200240EFCDAB8905040302C8D9EAFB58
:1012B00027262524F8B504460D461646012700BF0B
:1012C0001348007C012801D10220F8BD01201049FB
:1012D000087400BF0F48FFF733FB0746002F0FD1FC
:1012E000022C03D131462846FFF788FA0948FFF758
:1012F00027FB07460848406808218843064948609C
:1013000000BF00200249087400BF3846DDE7000036
:10131000DC090020F0FF0F00002002400D4840686B
:1013200002210840002810D00A484068C007C00FBA
:10133000002804D008480749C8600848C860084821
:10134000044908610748086101E001207047002056
:10135000FCE7000000200240EFCDAB89050403024A
:10136000BFAE9D8C16151413F0B587B004460F461A
:1013700000200690002605900025B0E00120A8403E
:101380000690069838400646069886427ED1206828
:101390006A000321914088432060E80881002046CC
:1013A000203040586907CA0E0F2191408843E90850
:1013B0008A00214620318850A0686A0003219140AC
:1013C0008843A06060680121A94088436060E168AB
:1013D0006A00032090408143E160434884420BD17E
:1013E00001200003864207D1009000200190029066
:1013F0006946204600F0A6F83B4884420AD1082EF0
:1014000008D13820009000200190029069462046C3
:1014100000F098F8344884420AD1402E08D1C02008
:1014200000900020019002906946204600F08AF862
:101430000520000784420BD10120C003864207D15A
:1014400000900020019002906946204600F07AF852
:10145000264884420BD1012E09D1F00300900020D0
:101460000190029069460520000700F06BF81E48C5
:10147000844213D10120400286420FD10090012006
:101480000190002002906946204600E026E000F02E
:1014900059F860690121A94008436061A807010F5C
:1014A0000F20884005901248A908890041580598E6
:1014B00081430F48AA08920081500E480068B0434B
:1014C0000C49086008464068B04348600846806898
:1014D000B04388600846C068B043C8606D1C102DDA
:1014E00000D24BE707B0F0BD00040050001C0050D4
:1014F00008000140000401407FB50546002401209A
:10150000400385420DD1684603F020FE012808D132
:10151000684604788A2C01D08B2C02D1684606F0EC
:1015200039FC7FBD10B504460548406920400028BD
:1015300005D02046FFF7E0FF01484461446110BD3B
:1015400000040140F0B503460A46002700240020AD
:101550000021DAE001258D402F4615683D402C46DC
:10156000BC4276D15568022D02D05568122D15D196
:10157000CD08AD001E46203670594D07EE0E0F25E2
:10158000B5400646AE4330464E07F60E1569B540E7
:101590002843CD08AE001D462035A8515568012DC1
:1015A00008D05568022D05D05568112D02D0556818
:1015B000122D18D198684E000325B5400646AE435B
:1015C00030464E00D568B5402843986058680125DC
:1015D0008D400646AE4330461026556835402D09ED
:1015E0008D402843586018684E000325B5400646D4
:1015F000AE4330461579AD07AD0F4E00B5402843D8
:101600001860D8684E000325B5400646AE43304604
:101610004E009568B5402843D860012636075568C6
:101620003540B54270D13B4D6D6B01263543394E87
:101630007563394D8E08B600A8598D072E0F0F25FA
:10164000ED43B540284005252D07AB4202D10025CA
:1016500015E059E0314DAB4201D101250FE0304D8D
:10166000AB4201D102250AE02E4DAB4201D1032548
:1016700005E02D4DAB4201D1042500E005258E0784
:10168000360FB5402843244D8E08B600A851274D8B
:1016900028680546A5432846012636045568354086
:1016A000B54202D1054625432846204D286068688A
:1016B0000546A54328460126760455683540B542BF
:1016C00002D1054625432846184D6860A86805469E
:1016D000A54328460126360555683540B54202D156
:1016E000054625432846114DA860E8680546A543F0
:1016F00028460126760555683540B54202D1054693
:1017000025432846094DE860491C102900D221E7ED
:10171000F0BD00000010024008000140000400502D
:1017200000080050000C0050001C00500004014054
:10173000024613690B40002B01D0012000E000207D
:101740007047002A01D0816100E08162704700008B
:101750000148006870470000C000002070B50446D2
:101760000025002C01D1012070BD2068C068C00791
:10177000C00F01214840484000280FD02068C068B1
:10178000022108404008002808D02068C0680421D1
:1017900008408008002801D00120E5E7607C00288F
:1017A00002D1204600F040F8022060741C482168F5
:1017B000086020684068C008C0006168084321686C
:1017C000486020688068000B0003A1680843216816
:1017D00088601449E068884203D120680069884223
:1017E00019D0FFF7B5FF054609E0FFF7B1FF401B31
:1017F0007D21C900884202D903206074B4E72068C3
:10180000C0680028F1D120680069000B0003E1687E
:10181000084321680861012060740020A4E70000EB
:1018200055550000FF0F000010B504460448806BBA
:101830000121090708430249886300F0C3FE10BD77
:101840000010024070B50446002500BF207C01282E
:1018500001D1022070BD0120207400BF02206074FD
:10186000FFF776FF05460EE0FFF772FF401B7D2174
:10187000C900884207D90320607400BF002020748B
:1018800000BF0320E6E72068C06802210840400846
:101890000028E9D10548216808600120607400BF74
:1018A0000020207400BF00BFD4E70000AAAA0000F7
:1018B00070B50446002500BF207C012801D102201C
:1018C00070BD0120207400BF022060741D49E068D3
:1018D000884202D11C48216808601C4821680860C1
:1018E000FFF736FF05460EE0FFF732FF401B7D2174
:1018F000C900884207D90320607400BF002020740B
:1019000000BF0320DCE72068C068C007C00F0121CA
:101910004840484000280DD02068C0680221084097
:101920004008002806D02068C068042108408008CC
:101930000028D9D10120607400BF0020207400BFAE
:1019400000BFBDE7FF0F0000AAAA0000CCCC00003A
:1019500002480068401C014908607047C000002030
:1019600010B5094800684021084307490860084647
:1019700000680221084304490860032000F006F8CB
:1019800000F017F8002010BD0020024070B504469A
:1019900001F084F806467D21C900FEF7ABFB054641
:1019A00002F06AFB00222146501E00F00FF80020D2
:1019B00070BD704700BFC206D20E01219140024A9D
:1019C000116000BF7047000000E100E070B5044600
:1019D0000D4616462946204603F0F4FB70BD70B54F
:1019E00004460D461C21694323462833C9180A6959
:1019F000FF2175310859294604F05FFD70BD70B5AF
:101A000004460D461C2169432346B433C9180A69AC
:101A1000FF2175310859294604F0BAFD70BD000058
:101A200070B502460B4680201840802807D1580622
:101A3000400E1C24604314462834011904E01C2085
:101A400058431446B4340119002088705806400EDB
:101A5000087080201840C009487000BFFF20413046
:101A6000805C012801D1022070BD0124FF2041309B
:101A7000845400BF4878002828D00C78A40010684F
:101A8000005B4024204000280BD00C78A400106894
:101A9000005B284C2040284C20430D78AD00146892
:101AA00060530D78AD001468645B224D30352C40D6
:101AB00020461024604020246040A4020443802576
:101AC0002C430E78B6001568AC532AE00C78A400BD
:101AD0001068005B0124A403204000280BD00C7880
:101AE000A4001068005B134C2040144C20430D7878
:101AF000AD00146860530D78AD001468645B0F4D41
:101B0000F13D2C40204601242403604064006040E5
:101B1000A400044380252C430E78B6001568AC530E
:101B200000BF00BF0024FF204130845400BF0020CC
:101B30009AE700008F8F0000C080000080C0000086
:101B4000FFB581B004460D4600200090802028405B
:101B5000802807D16806400E1C23584323462833AB
:101B6000C11806E06806400E1C2358432346B433D0
:101B7000C1186806400E087080202840C0094870CF
:101B8000CA600498C87000BFFF204130005D012882
:101B900002D1022005B0F0BD0123FF2041300355E2
:101BA00000BFC878002806D001282BD0022810D00A
:101BB000032835D118E00B789B002068C05AE64B0B
:101BC0001840FF30FF3002300E78B600236898537B
:101BD00026E00B789B002068C05ADF4B18400E7837
:101BE000B600236898531BE00B789B002068C05A0E
:101BF000D94B184003235B02C0180E78B600236847
:101C000098530DE00B789B002068C05AD24B1840C7
:101C100001239B02C0180E78B6002368985300BFBA
:101C200000BF0B789B002068C05ACC4B1840CC4BAF
:101C300018430B7818430E78B60023689853887AB7
:101C400000287DD14878002835D08888401043008E
:101C500020684030008A0E78F60080190127BF0204
:101C60002668F61983530B789B002068C05A4023DE
:101C7000184000280CD00B789B002068C05AB74B46
:101C80001840B74B403318430E78B600236898537A
:101C90000E78B60023689B5BB04E30363340184652
:101CA000202358409B020343802633430F78BF0014
:101CB0002668F35348E1888840104300206840308C
:101CC000008A0E78F6008019001D0127BF022668E1
:101CD000F619835320684030008A0E78F600801988
:101CE000801D2668F6198319CE683E2E0FD9CE685E
:101CF000F602300C0E7BF606F60E002E01D1461EC3
:101D0000B0B286020127FF033E431E800CE0CE687E
:101D1000F603300C0E7BF607F60F002E01D0461CA2
:101D2000B0B28606360C1E800B789B002068C05A25
:101D300001239B03184000280DD00B789B0000E086
:101D40001FE02068C05A854B1840864B18430E7818
:101D5000B600236898530E78B60023689B5B814ECB
:101D6000F13E3340184601231B0358405B005840A6
:101D70009B000343802633430F78BF002668F3534C
:101D8000E2E00B789B002068C05AFF230133184320
:101D9000724B1840724B18430E78B6002368985364
:101DA000C8884010430020684030008A0E78F60052
:101DB00080190127BF022668F6198353088940104D
:101DC000430020684030008A0E78F6008019001D1C
:101DD0002668F6198353487800285CD10B789B005D
:101DE0002068C05A3B01184000280BD00B789B009C
:101DF0002068C05A594B18405A4B18430E78B60009
:101E0000236898530B789B002068C05A40231840E1
:101E100000280CD00B789B002068C05A4F4B18400C
:101E20004F4B403318430E78B600236898530B7815
:101E30009B002068C05A494B1840494B4033184317
:101E40000E78B600236898530E78B60023689B5B23
:101E5000444EF13E3340184601231B0358405B00BB
:101E600058409B000343802633430F78BF00266809
:101E7000F3530E78B60023689B5B384E3036334000
:101E800018460123DB030343802633430F78BF004A
:101E90002668F35358E00B789B002068C05A012352
:101EA0009B03184000280BD00B789B002068C05A79
:101EB0002A4B18402B4B18430E78B60023689853D2
:101EC0000B789B002068C05A4023184000280CD093
:101ED0000B789B002068C05A204B1840204B4033A1
:101EE00018430E78B600236898530B789B0020683F
:101EF000C05A1A4B18401B4B18430E78B600236883
:101F000098530E78B60023689B5B144E30363340EE
:101F100018460123DB030343802633430F78BF00B9
:101F20002668F3530E78B60023689B5B0D4EF13E96
:101F3000334018460123DB030343802633430F78E5
:101F4000BF002668F35300BF00BF0023FF204130CD
:101F5000035500BF00981DE68F8900008F8F000099
:101F60008080000080C00000FFB504460D46680672
:101F7000400E1C2250432246B43281180298086158
:101F80004B610020886148706806400E087000BFF1
:101F9000FF204130005D012802D1022004B0F0BDD5
:101FA0000122FF204130025500BFCA6848699042B3
:101FB00004D9CB684869C01A486102E04B69002027
:101FC0004861887A002827D120684030008A0E783E
:101FD000F6008019801D0127BF022668F6198219B4
:101FE0003E2B0DD9DE02300CDE06F60E002E01D19E
:101FF000461EB0B286020127FF033E4316800AE068
:10200000DE03300CDE07F60F002E01D0461CB0B206
:102010008606360C168039E04878002827D12068DB
:102020004030008A0E78F6008019801D0127BF021B
:102030002668F61982193E2B0DD9DE02300CDE0619
:10204000F60E002E01D1461EB0B286020127FF0314
:102050003E4316800AE0DE03300CDE07F60F002E4A
:1020600001D0461CB0B28606360C16800EE04878C9
:1020700001280BD120684030008A0E78F6008019C4
:10208000801D0127BF022668F61983530E78B6001B
:102090002268925B0B4E32401046012212035040E0
:1020A0005200504092000243802632430F78BF0016
:1020B0002668F25300BF0022FF204130025500BFC6
:1020C00000206BE78FBF000070B502460B4600BFD3
:1020D000FF204130805C012801D1022070BD012425
:1020E000FF204130845400BF80201840802807D151
:1020F0005806400E1C24604314462834011904E09D
:102100001C2058431446B434011901208870580625
:10211000400E087080201840C009487008780028D8
:1021200014D10D78AD001468645B214D2C4020461D
:1021300001242403604010246040E402044380250D
:102140002C430E78B6001568AC5328E04878002878
:1021500011D00D78AD001468645B164D2C402046FC
:1021600010246040E402044380252C430E78B6001E
:102170001568AC5313E00D78AD001468645B0C4D2A
:10218000303D2C402046012424036040E4000443F9
:1021900080252C430E78B6001568AC5300BF00BFF5
:1021A0000024FF204130845400BF002096E7000047
:1021B000BFBF0000BF8F0000FFB582B005460F46CD
:1021C0001E46002001907806400E1C2148432946F7
:1021D000283144180498206166610020A061012024
:1021E00060707806400E207000BFFF204130405DD7
:1021F000012802D1022006B0F0BD0121FF204130AC
:10220000415500BFE1686069884204D9E6686069A9
:10221000801B606102E0666900206061A07A00288E
:1022200013D1B3B2A28821692868009003F042FA62
:1022300028684030008A2278D2008018801C012350
:102240009B022A68D21886526CE06078002827D159
:1022500028684030008A2278D2008018801D01232F
:102260009B022A68D21881183E2E0DD9F202100C5A
:10227000F206D20E002A01D1421E90B28202012340
:10228000DB031A430A800AE0F203100CF207D20FB4
:10229000002A01D0421C90B28206120C0A800EE085
:1022A000607801280BD128684030008A2278D2005B
:1022B0008018801D01239B022A68D218865221783B
:1022C00089002868405A40210840002802D020890F
:1022D000019001E0E0880190B3B221690091286883
:1022E000019A03F0E7F9607800280CD12178890081
:1022F0002868405A19490840194908432278920031
:10230000296888520EE0607801280BD12178890075
:102310002868405A1149084012490843227892001F
:1023200029688852227892002968895A0B4A3032EB
:1023300011400846102148402021484089020143AD
:102340008022114323789B002A68D15200BF0021CC
:10235000FF204130415500BF00204CE78F8F000027
:10236000C080000080C0000070B5044600252068D1
:10237000403080880121C9030840884202D12046AC
:1023800002F05CFF2068403080880121890208400B
:1023900088420AD14149206840308180204600F0BF
:1023A0008BF80021204600F0BBF820684030808880
:1023B000012189030840884203D13949206840300F
:1023C000818020684030808801214903084088428C
:1023D00003D13449206840308180206840308088B3
:1023E000012109030840884213D120684030008849
:1023F00004218843216840310880BD252D022068D2
:1024000040300580204600F065F8274920684030BC
:1024100081802068403080880121C90208408842BC
:102420001FD12249206840308180206840300088D8
:102430000821084321684031088020684030008826
:10244000042108432168403108802068403080889A
:10245000012109030840000B002802D1204600F0AA
:1024600089F820684030808801214902084088426C
:1024700006D10F49206840308180204600F048F89E
:10248000206840308088FF2101310840884203D114
:10249000084920684030818070BD0000FFFB0000CB
:1024A000FFBF0000FFDF0000FFEF0000FFF70000AC
:1024B000FFFD0000FFFE000010B50446FF2175314E
:1024C0000859012104F02BF9FF217531085904F056
:1024D000E3F810BD10B50446A06900280BD00A48E7
:1024E0000068002807D103F071FB08480069062145
:1024F000884306490861FF217531085904F0F2F854
:1025000000200149086010BD9800002000ED00E0A7
:1025100010B50446FF217531085904F0EBF810BDE1
:10252000024600BFFF204130805C012801D102201B
:1025300070470123FF204130835400BF002904D19C
:10254000802310684030838101E02420815400BF43
:102550000023FF204130835400BF0020E8E710B57E
:102560000446FF21753108592146FF31453104F0F9
:10257000E5F810BD10B50446FF217531085904F087
:102580002AF9A069002805D00348006906210843FC
:102590000149086110BD000000ED00E0034800683B
:1025A000012189020843014908607047007000401A
:1025B0000348006801214902084301490860704747
:1025C0000070004003480068FF21013108430149C1
:1025D000086070470070004070B504460025002672
:1025E0002078C007C00F002807D06B48C06880085B
:1025F0008000616808436849C8600221206808407B
:10260000022807D16448C0680C218843A1680843A8
:102610006149C860042120680840042808D15E4848
:10262000C068032189028843E16808435A49C860A9
:10263000082120680840082808D15748C0680321AD
:1026400009038843216908435349C8602021206851
:10265000084020287ED150484038806BC905084387
:102660004D49403988634D480068891508434B49F6
:102670000860FFF76DF8054606E0FFF769F8401BB4
:10268000642801D9032070BD44480068FF2101314E
:1026900008400028F1D0404800690321090408409F
:1026A0000322120461691140884214D03A4800693B
:1026B000114688430646384800690121C904084389
:1026C00035490861084600690121C9048843324937
:1026D000086108460661012109046069884213D136
:1026E000FFF736F8054607E0FFF732F8401B2C49A4
:1026F000884201D90320C6E7274800690121490221
:102700000840400A0028EFD000BF03210904606997
:10271000084088420DD120484038006809018843AC
:10272000032212046169914308431B494039086040
:1027300008E0194840380068032109058843164914
:10274000403908601448006903210904884361691D
:10275000084300E002E01049086100BF4021206802
:102760000840402807D10C48C06809058843A16982
:1027700008430949C860802120680840802808D1A2
:102780000548C068032189048843E1690843024978
:10279000C860002077E70000401002400070004051
:1027A0008813000070B504460E460025B84800683E
:1027B000C007C00FB0426ED2B54800684008400064
:1027C0003043B349086008460068C007C00FB042F4
:1027D00001D0012070BD022120680840022807D1E5
:1027E000AC48C068F0218843A1680843A949C86083
:1027F0002078C007C00F00284CD06068022809D19B
:10280000A4480068012149040840400C002824D154
:102810000120DFE76068002809D19E480068012197
:1028200049020840400A002817D10120D2E7606819
:10283000032809D197480068012149060840400E45
:1028400000280AD10120C5E7924800680421084009
:102850008008002801D10120BCE78E48C0688008AC
:102860008000616808438B49C860FEF771FF054628
:102870006068022810D107E0FEF76AFF401B864916
:10288000884201D90320A5E78248C0680C2108408E
:102890000828F1D1DAE035E0606803280FD107E0BD
:1028A000FEF756FF401B7C49884201D9032091E77F
:1028B0007848C0680C2108400C28F1D1C6E0606857
:1028C00000280FD107E0FEF743FF401B7249884202
:1028D00001D903207EE76F48C0680C21084000281A
:1028E000F1D1B3E007E0FEF733FF401B6A498842AD
:1028F00001D903206EE76748C0680C21084004280E
:10290000F1D1A3E0022120680840022807D16148E4
:10291000C068F0218843A16808435E49C8602078F8
:10292000C007C00F00284CD06068022809D1594860
:102930000068012149040840400C002824D10120EE
:1029400048E76068002809D152480068012149021F
:102950000840400A002817D101203BE7606803289F
:1029600009D14C480068012149060840400E002862
:102970000AD101202EE7474800680421084080085A
:10298000002801D1012025E74248C0688008800066
:10299000616808433F49C860FEF7DAFE0546606893
:1029A00002280FD107E0FEF7D3FE401B3A498842C8
:1029B00001D903200EE73748C0680C2108400828D9
:1029C000F1D134E0606803280FD107E0FEF7C0FEC4
:1029D000401B3149884201D90320FBE62D48C068DD
:1029E0000C2108400C28F1D121E0606800280FD1AB
:1029F00007E0FEF7ADFE401B2749884201D90320BE
:102A0000E8E62448C0680C2108400028F1D10EE017
:102A100007E0FEF79DFE401B1F49884201D90320B5
:102A2000D8E61C48C0680C2108400428F1D1184899
:102A300000684008400030431549086008460068B7
:102A4000C007C00FB04201D00120C3E604212068B6
:102A50000840042808D10F48C068072109028843AC
:102A6000E16808430B49C86008212068084008282D
:102A700009D10848C0680721C90288432169C900F3
:102A800008430449C8600320FEF780FF0020A1E648
:102A900000200240001002408813000010B500F032
:102AA00037F80649C968F02211400909044A515C07
:102AB000C840044908600846006810BD0010024084
:102AC000CD000020A000002010B5FFF7E7FF05496A
:102AD000C968072212021140090A034A515CC84022
:102AE00010BD000000100240CD00002010B5FFF71F
:102AF000D5FF0549C9680722D2021140C90A034A15
:102B0000515CC84010BD000000100240CD00002004
:102B1000F8B5002400270020009000250026294851
:102B20004068072149030840450BA80026490D5875
:102B30002448C0680C210840002806D0042806D08C
:102B400008280ED00C2838D10DE02E4637E01D485D
:102B5000006810210840002801D01C4E00E01C4EE7
:102B60002DE01C4E2BE01748C0680F218904084057
:102B700004461448C0680321890508400746A00C94
:102B800015490C5CB80D471C0E48C06801210904AA
:102B9000084000900098002807D10D49614308467D
:102BA0003946FDF7A7FA064606E00A49614308469A
:102BB0003946FDF79FFA064601E02E4600BF00BFEA
:102BC0003046F8BD00100240507E000800093D006C
:102BD0000024F40000127A00C400002070B50446FE
:102BE00000252078C007C00F002871D0FC48C068BD
:102BF0000C21084008280BD0F948C06808400C2870
:102C000014D1F748C06801210904084088420DD159
:102C1000F3480068012149040840400C002857D0BF
:102C200049106068884253D0012070BDEC480068AC
:102C3000052109048843EA490860FEF789FD054635
:102C400007E0FEF785FD401BE649884201D90320D5
:102C5000EBE7E3480068012149040840400C0028E4
:102C6000EFD1DF4800680521090488436168084303
:102C7000DB490860012109046068884214D1FEF72D
:102C800067FD054607E0FEF763FD401BD549884216
:102C900001D90320C9E7D24800680121490408404E
:102CA000400C0028EFD013E0FEF752FD054607E088
:102CB000FEF74EFD401BCB49884201D90320B4E703
:102CC000C7480068012149040840400C0028EFD1A2
:102CD00002212068084002286AD1C148C0680C213E
:102CE000084004280BD0BE48C06808400C281DD1FD
:102CF000BB48C068012109040840002816D1B84823
:102D00000068042108408008002804D0E0680128F9
:102D100001D0012089E7B24840681F210902884399
:102D2000216909020843AE49486041E0E068002893
:102D300024D0AB48006809218843E1680843A849CA
:102D40000860FEF705FD054606E0FEF701FD401BA5
:102D5000642801D9032068E7A148006804210840DD
:102D600080080028F1D09E4840681F21090288434E
:102D70002169090208439A49486019E098480068A7
:102D800009218843E168084395490860FEF7E0FCA3
:102D9000054606E0FEF7DCFC401B642801D9032051
:102DA00043E78F4800680421084080080028F1D1DB
:102DB00010212068084010286FD18948C0680C2174
:102DC000084000281FD186480068012149020840B8
:102DD000400A002804D0E069012801D0012024E73E
:102DE0007F484068072149038843616A08437C495A
:102DF0004860084640680002000A218C0906084322
:102E00007749486049E0E06900282CD074480068A0
:102E1000FF210131084372490860FEF799FC05461D
:102E200006E0FEF795FC401B642801D90320FCE670
:102E30006B480068012149020840400A0028F0D090
:102E400067484068072149038843616A0843644929
:102E50004860084640680002000A218C09060843C1
:102E60005F49486019E05E480068FF2101318843EE
:102E70005B490860FEF76CFC054606E0FEF768FC5F
:102E8000401B642801D90320CFE655480068012182
:102E900049020840400A0028F0D108212068084073
:102EA000082839D1606900281BD04D48403000699E
:102EB000012108434A4940310861FEF749FC0546B3
:102EC00006E0FEF745FC401B642801D90320ACE670
:102ED0004348403000690221084040080028F0D0F3
:102EE0001AE03F4840300069400840003C4940310A
:102EF0000861FEF72DFC054606E0FEF729FC401BA5
:102F0000642801D9032090E6354840300069022149
:102F1000084040080028F0D12021206808402028DF
:102F200049D1A069002826D000BF2D488068012122
:102F300008432B4988600846406B01210843284913
:102F400048632948006A491408432749086200BFBA
:102F5000FEF7FEFB054606E0FEF7FAFB401B642881
:102F600001D9032061E61E4880680221084040081C
:102F70000028F1D01FE000BF1948806840084000D9
:102F8000174988601848006A1849084016490862BD
:102F900000BFFEF7DDFB054606E0FEF7D9FB401B50
:102FA000642801D9032040E60D48806802210840CA
:102FB00040080028F1D1042120680840042878D175
:102FC0000748806B890608430549886308480068FC
:102FD0008915084306490860FEF7BAFB054610E06C
:102FE000001002408813000000000140FEDFFFFFD8
:102FF00000700040FEF7ACFB401B642801D90320A1
:1030000013E668480068FF21013108400028F1D02C
:103010006548006905210902884363490861FEF794
:1030200097FB054607E0FEF793FB401B5F4988428C
:1030300001D90320F9E55C480069012149020840F3
:10304000400A0028EFD15848006905210902884349
:10305000A1680843544908618915A068884214D1C1
:10306000FEF776FB054607E0FEF772FB401B4F4973
:10307000884201D90320D8E54B4800690121490263
:103080000840400A0028EFD013E0FEF761FB054638
:1030900007E0FEF75DFB401B4449884201D903204D
:1030A000C3E541480069012149020840400A00285F
:1030B000EFD1A06A002872D03B484038C0680C218C
:1030C00008400C2869D0A06A022848D13648403808
:1030D0000068012109068843334940390860FEF73A
:1030E00037FB054606E0FEF733FB401B642801D999
:1030F00003209AE52C484038006801214906084021
:10310000400E0028EFD1616B206B0843E16A084351
:1031100025494039C968FD221204914308432249D8
:103120004039C860084600680121090608431E4965
:1031300040390860FEF70CFB054606E0FEF708FB89
:10314000401B642801D903206FE517484038006808
:10315000012149060840400E0028EFD01FE0124828
:10316000403800680121090688430F49403908604A
:10317000FEF7EEFA054606E0FEF7EAFA401B642881
:1031800001D9032051E5084840380068012149066B
:103190000840400E0028EFD101E0012045E5002065
:1031A00043E500000070004040100240881300001A
:1031B0000349096804221143014A11607047000065
:1031C0000070004010B504462068C06801218902E3
:1031D0000840800A002810D0206880680901084053
:1031E00000280AD02046FFF7E3FF2068C06880214E
:1031F0000840064908432168C860012000050449C9
:10320000486101212120015510BD00007FFBFFFF17
:1032100000040140F0B506460C461746002530680C
:103220004068124908400546FF2000042840000C71
:10323000E0701F2000022840000A6070A806800E7F
:10324000A070072040032840400B2070002F0BD1B6
:10325000E07802F085FAE070607802F081FA607040
:10326000A07802F07DFAA0700020F0BD3FFFFF00C3
:10327000F0B506460C46174600253068806A606047
:10328000306800681249084005463F200004284085
:10329000000C20707F2000022840000A6070680641
:1032A000400EA070012080052840000C2072002FE5
:1032B0000BD1207802F054FA2070607802F050FAB6
:1032C0006070A07802F04CFAA0700020F0BD000001
:1032D0007F7F7F0010B50446002C01D1012010BD76
:1032E0002120005D002802D1204600F055F802217F
:1032F0002120015500BFCA2021684862532021685F
:10330000486200BF204602F045FA002809D000BFFD
:10331000FF202168486200BF0421212001550120BF
:10332000DDE7206880681B490840216888602169C2
:1033300060680843A16908432168896808432168D7
:1033400088602168E06808612068006921890904B3
:103350000843216808612068C0688021884321688B
:10336000C8602068C06C800880002168C8646169FA
:10337000E06908432168C96C08432168C86400BF3C
:10338000FF202168486200BF012121200155002053
:10339000A5E70000BFFF8FFF10B596B004460420DC
:1033A000089000201290FF2001300A9008A8FFF733
:1033B00015FC002801D000BFFEE720200090C002CD
:1033C00005906846FFF708F9002801D000BFFEE726
:1033D0000848006901218904084306490861002260
:1033E00011460220FEF7F2FA0220FEF7E3FA16B0C9
:1033F00010BD000040100240F8B504460D461646C8
:10340000002700BF2020005D012801D10220F8BD67
:1034100001212020015500BF022121200155002E4D
:1034200008D1687810210840102803D168788843B3
:103430000A306870002E11D1E87802F09EF903047A
:10344000687802F09AF900020343A87802F095F92F
:1034500003432878400303431F4612E0687802F0D4
:103460007FF90746A87802F07BF90746E878000460
:10347000697809020843A978084329784903084371
:10348000074600BFCA20216848625320216848626D
:1034900000BF204602F07EF900280ED000BFFF20BA
:1034A0002168486200BF04212120015500BF00218E
:1034B0002020015500BF0120A9E7194838402168A4
:1034C00048602068C068802188432168C8602068FF
:1034D000806820210840002813D1204600F0CCF855
:1034E00000280ED000BFFF202168486200BF0421E1
:1034F0002120015500BF00212020015500BF0120DF
:1035000085E700BFFF202168486200BF012121201C
:10351000015500BF00212020015500BF002076E7A3
:103520003FFFFF00F8B504460D461646002700BFD2
:103530002020005D012801D10220F8BD01212020BA
:10354000015500BF022121200155002E1BD120680A
:10355000806840210840002800D002E00020287246
:1035600000BF287802F009F90304687802F005F931
:1035700000020343A87802F000F90343287A00040C
:1035800003431F4618E02068806840210840002857
:1035900004D0287802F0E4F8074602E00020287200
:1035A00000BF28780004697809020843A978084315
:1035B000297A09040843074600BFCA2021684862E7
:1035C00053202168486200BF204602F0E3F800283B
:1035D0000ED000BFFF202168486200BF04212120D7
:1035E000015500BF00212020015500BF0120A4E7A4
:1035F00020483840216808602068806801218904DB
:103600008843216888602969E868084321688968D7
:103610000843216888602068C06880218843216849
:10362000C8602068806820210840002813D1204607
:1036300000F022F800280ED000BFFF202168486269
:1036400000BF04212120015500BF00212020015589
:1036500000BF012071E700BFFF202168486200BF62
:1036600001212120015500BF00212020015500BF6C
:10367000002062E77F7F7F0070B504462068C06845
:10368000A02188432168C860FEF762F8054608E07B
:10369000FEF75EF8401B7D21C900884201D9032056
:1036A00070BD2068C068202108400028F0D00020AC
:1036B000F6E710B50446002C01D1012010BD02210F
:1036C0005120015520680068402188432168086026
:1036D000204600F051F8002152200155512001559B
:1036E00000BF5020015500BF0020E7E710B5044699
:1036F000002C01D1012010BD5120005D002802D115
:10370000204600F05DF80221512001552068006834
:103710004021884321680860A16860680843E16827
:103720000843216908436169084301225202A169E3
:1037300011400843E1690843216A0843A16A08432C
:1037400021680860A069000C04210840616A0843F0
:10375000216848602168E06A08612068C0699100BA
:1037600088432168C8610021522001550121512060
:1037700001550020BFE7000010B504460E48806ADE
:103780000121890308430C4988620846806A0121A7
:103790008903884308498862012149030748FDF7E6
:1037A000E3FD012189030548FDF7DEFD0121C90381
:1037B0000248FDF7D9FD10BD001002400004005082
:1037C00010B586B004462F48C06A022108432D492F
:1037D000C8620846C06A022108432A49C8620846EE
:1037E000C06A022108432749C8620846C06A02210C
:1037F00008432449C8620846806B012189030843B5
:10380000204988630846C06A012108431D49C862EF
:1038100001204003019002200290012003900490B7
:103820000020059001A91848FDF78CFE01208003B7
:1038300001900020059001A91348FDF783FE0120A7
:10384000C00301900020059001A90F48FDF77AFE02
:1038500001200003019000200590012004900290B7
:1038600001A90948FDF76EFE0120C0030190012067
:103870000490029001A905200007FDF763FE06B041
:1038800010BD00000010024000040050FEB50446C8
:103890000E4615461F46002001905120005D01286C
:1038A0007ED1002E01D0002D01D10120FEBD00BF30
:1038B0005020005D012801D10220F7E701215020AE
:1038C000015500BF222151200155002152200155F0
:1038D000A663A587E5870020A064E064A086E08653
:1038E0000121C903A068884205D1206800684910F9
:1038F00088432168086001214903A06A88420DD1EC
:1039000000BF20680068884321680860206800685C
:103910000121490308432168086000BFFF210531E8
:10392000606888420FD1A06800280CD100BF002138
:103930005020015500BF2B463246314620460097A5
:1039400000F0C9F9B2E7206800684021084040282B
:1039500004D020680068084321680860E0680028F7
:1039600025D113E03B4600220121204601F0C4FF8F
:10397000002801D0032099E72068C068C1B2A26B7B
:10398000501CA0631170E08F401EE087E08F01287B
:10399000E8DC01214903A06A88422BD1206800E0BD
:1039A000A8E00068491008432168086022E013E09D
:1039B0003B4600220121204601F09EFF002801D055
:1039C000032073E72068C068A16B0880A06B801C8F
:1039D000A063E08F401EE087E08F0128E8DC012132
:1039E0004903A06A884205D120680068491008434D
:1039F000216808603B4600220121204601F07CFF3F
:103A0000002801D0032051E7E068002807D1206892
:103A1000C068C1B2A26B501CA063117006E02068A0
:103A2000C068A16B0880A06B801CA063E08F401E63
:103A3000E08701214903A06A884213D13B46002256
:103A40000121204601F058FF002807D05220005DD8
:103A50000221084352210855032027E72068C06847
:103A600080B20290FF210531606888420ED10121A9
:103A7000C903A068884203D04911A068884205D1D3
:103A80002068006840218843216808600121512096
:103A90000155206880681021084000090190490202
:103AA000A06A88421FD1019800281CD05220005DD6
:103AB000022108435221085500BF206800680121F7
:103AC0004903884321680860206800680121490390
:103AD00008432168086000BF00BF00215020015545
:103AE00000BF0120E2E600BF00215020015500BFC9
:103AF0000020DBE60220D9E6F8B504460E4615465E
:103B00001F465120005D01287CD1002E01D0002DE0
:103B100001D10120F8BD00BF5020005D012801D176
:103B20000220F7E701215020015500BF122151204A
:103B300001550021522001552663A586E586002007
:103B4000E064A064A087E08701214903A06A88425D
:103B50000DD100BF20680068884321680860206894
:103B600000680121490308432168086000BF012162
:103B7000C903A068884205D120680068491008433D
:103B8000216808602068006840210840402804D06F
:103B900020680068084321680860E068002832D186
:103BA0006068002802D0E08E012808D1216B481CF3
:103BB000206308782168C860E08E401EE08612E02D
:103BC0003B4600220221204601F096FE002801D04B
:103BD00003209FE7216B481C206308782168C86098
:103BE000E08E401EE086E08E0028E9DC01214903DA
:103BF000A06A88423AD120680068491008432168C9
:103C0000086033E065E06068002802D0E08E01289B
:103C100009D1206B00882168C860206B801C20635C
:103C2000E08E401EE08613E03B4600220221204643
:103C300001F062FE002801D003206BE7206B0088B2
:103C40002168C860206B801C2063E08E401EE086E7
:103C5000E08E0028E8DC01214903A06A884205D1F2
:103C60002068006849100843216808603B4600222C
:103C70000221204601F040FE002807D05220005DBE
:103C80002021084352210855032043E73B460122E7
:103C90008021204601F030FE002807D05220005D30
:103CA0002021084352210855032033E7A06800284B
:103CB00005D100BF2068C0682068806800BF01216E
:103CC0005120015500BF00215020015500BF0020A8
:103CD00020E702201EE7FEB504460E4617461D46A5
:103CE0000020019000905120005D01900198012872
:103CF00002D00198222875D1002E03D0002F01D0C8
:103D0000002D01D10120FEBD00BF5020005D012823
:103D100001D10220F7E701215020015500BF5120B9
:103D2000005D012802D1322151200155002152208D
:103D30000155A763A587E5872663A586E58600204C
:103D4000A064E06401214903A06A88420DD100BF4C
:103D500020680068884321680860206800680121A5
:103D6000490308432168086000BF206800684021BB
:103D70000840402804D02068006808432168086093
:103D80000121C902E06888427DD16068002807D01F
:103D9000FF210531606888420CD1E08E012809D1ED
:103DA000206B00882168C860206B801C2063E08E37
:103DB000401EE086E08E002820D101214903A06A40
:103DC000884205D1206800684910084321680860CE
:103DD000002201212046089B01F08EFD002802D020
:103DE000032090E742E12068C068A16B0880A06BC7
:103DF000801CA063E08F401EE087D7E035E0002202
:103E000002212046089B01F077FD002801D0032005
:103E100079E7206B00882168C860206B801C2063D4
:103E2000E08E401EE086E08E00280AD10121490381
:103E3000A06A884205D120680068491008432168BB
:103E40000860002201212046089B01F055FD002852
:103E500001D0032057E72068C068A16B0880A06BE1
:103E6000801CA063E08F401EE087E08E0028C6DC47
:103E700060680028C1D1002201212046089B01F082
:103E80003BFD002800E00DE001D003203BE7206867
:103E9000C068A16B0880A06B801CA063E08F401EEF
:103EA000E08783E06068002807D0FF210531606863
:103EB00088420BD1E08E012808D1216B481C206379
:103EC00008782168C860E08E401EE086E08E0028F9
:103ED0001CD101214903A06A884205D120680068ED
:103EE0004910084321680860002201212046089BF0
:103EF00001F002FD002801D0032004E72068C0681B
:103F0000A16B0870E08F401EE0874FE034E0002294
:103F100002212046089B01F0EFFC002801D003207D
:103F2000F1E6216B481C206308782168C860E08EA8
:103F3000401EE086E08E00280AD101214903A06AD4
:103F4000884205D12068006849100843216808604C
:103F5000002201212046089B01F0CEFC002801D060
:103F60000320D0E62068C068C1B2A26B501CA063D9
:103F70001170E08F401EE087E08E0028C7DC60688B
:103F8000002813D1002201212046089B01F0B4FC37
:103F9000002801D00320B6E62068C068C1B2A26B39
:103FA000501CA0631170E08F401EE087012149037F
:103FB000A06A884213D1002201212046089B01F00B
:103FC0009BFC002807D05220005D022108435221AB
:103FD0000855032097E62068C06880B2029001224D
:103FE00080212046089B01F087FC002807D0522042
:103FF000005D2021084352210855032083E601215A
:104000005120015520688068102108400009009067
:104010004902A06A884222D1009800281FD052206D
:10402000005D022108435221085501214903A06A7D
:1040300088420DD100BF206800688843216808606D
:10404000206800680121490308432168086000BF17
:1040500000BF00215020015500BF012053E600BFE2
:1040600000215020015500BF00204CE602204AE606
:1040700010B5FDF76DFC10BD70B504462546681EF1
:104080000949884201D901200CE0681E07494861AE
:104090000321081F01F096F80020044988610720D9
:1040A0000861002070BD0000FFFFFF0000E000E09D
:1040B00010B5FFF7DDFF10BD70B5054600211448AF
:1040C00000F001F981B213480468601C114A1060C5
:1040D0006000114A11520F480068022817D3104699
:1040E00000880021C943081A114649884018401C1D
:1040F00080B20A4908600846016809480068FBF771
:10410000F9FF0849086008460068C000086070BDF3
:1041100004040020480000203E0000204C00002045
:10412000A00000204400002010B50446206800696B
:1041300002210840400800281CD02068C0680840C0
:104140004008002816D0481F21680861012020750A
:10415000206880698007800F002803D02046FFF781
:10416000ABFF05E0204600F0ABF8204600F0A9F8D0
:10417000002020752068006904210840800800287C
:104180001DD02068C06808408008002817D0C843A8
:1041900021680861022020752068806903210902D6
:1041A0000840002803D02046FFF786FF05E02046A0
:1041B00000F086F8204600F084F800202075206882
:1041C000006908210840C00800281CD02068C06889
:1041D0000840C008002816D0C843216808610420A0
:1041E00020752068C0698007800F002803D0204612
:1041F000FFF762FF05E0204600F062F8204600F07D
:1042000060F800202075206800691021084000092E
:1042100000281DD02068C06808400009002817D079
:10422000C84321680861082020752068C0690321FF
:1042300009020840002803D02046FFF73DFF05E0B3
:10424000204600F03DF8204600F03BF800202075A5
:1042500020680069C007C00F01214840484000287D
:1042600015D02068C06808404840484000280ED05B
:10427000C81E21680861204600F024F80E49206815
:10428000884204D10D480068401C0C490860206831
:10429000006940210840800900280BD02068C068D0
:1042A00008408009002805D0C843216808612046DD
:1042B00000F035F810BD0000001000409C00002008
:1042C00070477047704710B50246002300BF342086
:1042D000805C012801D1022010BD012434208454C7
:1042E00000BF002906D0042907D0082908D00C29CE
:1042F0000CD108E01068436B09E01068836B06E09E
:104300001068C36B03E01068036C00E000BF00BFDF
:1043100000BF00243420845400BF1846DCE77047F7
:1043200010B50446002C01D1012010BD02216920E6
:10433000015520680068400840002168086000209E
:10434000216808602168486021688860204600F084
:1043500047F800216A2001556920015500BF6820F7
:10436000015500BF0020E0E710B50446002C01D144
:10437000012010BDA069002800D000E000BF692026
:10438000005D002802D1204600F048F80221692093
:1043900001552068006840084000216808602046F8
:1043A00001F024FD606A002802D0204601F076FC6E
:1043B000206840680921C902884321684860206854
:1043C00080682A218843216888602068006801216C
:1043D000084321680860204601F0D8FCC9E70000C6
:1043E00010B504460C48806A0121490408430A4973
:1043F00088620846806A0121490488430649886228
:10440000042105200007FCF7AFFF08210520000765
:10441000FCF7AAFF10BD00000010024010B586B0E6
:1044200004461648C06A012108431449C862084678
:10443000C06A012108431149C8620846806B012106
:10444000490408430D49886304200190022002902A
:1044500000200390022004900420059001A905206B
:104460000007FDF76FF8082001900420059001A9CE
:1044700005200007FDF766F806B010BD00100240E9
:10448000FFB581B004460D4616466920005D01283F
:1044900003D06920005D222868D1002D01D0002EB4
:1044A00002D1012005B0F0BD00BF6820005D0128E9
:1044B00001D10220F6E701216820015500BF00214B
:1044C0006A2001556920005D222803D1322169202C
:1044D000015502E012216920015550200653522057
:1044E000065323E05220005B401E81B2522001534C
:1044F000002280212046049B01F0BCFD002801D051
:104500000320CFE701210903A06888420AD120696E
:10451000002807D12F463888C005C00D2168886261
:10452000AD1C03E028786D1C216888625220005B76
:104530000028D7DC002240212046049B01F09AFD90
:10454000002801D00320ADE76920005D322803D1A7
:1045500022216920015502E001216920015500BF97
:1045600000216820015500BF00209BE7022099E749
:1045700000BFFEE710B51348006901214907084054
:10458000400F002805D00F480069891108430D49E4
:1045900008610D480D490860062048600C490B4829
:1045A00081600C49C160FDF7D9F8002801D0FCF703
:1045B000EDF80648FDF77CF9002801D0FCF7E6F895
:1045C00010BD00004010024000300040F003002009
:1045D000050C0000FF0F000010B5224800F0CAF8DB
:1045E0000820FCF7EDFD01231F4A12211D4800F0B1
:1045F0006BF81D4800780521084005282FD180213F
:104600001A48FBF7B8FD174800F0CEFA17491548CD
:1046100000F0B2FC16490870124800F021FD144861
:104620000078002809DD12480178104802F016FED3
:104630001049086000201049087010480078401C9C
:104640000E4908700E480068401C0D4908600D486E
:104650000068401C0B4908600648006810BD002037
:10466000FCE70000640100209C040020BC04002042
:104670005800002054000020590000205A0000205B
:104680005C00002060000020F8B505460E46174685
:104690001C46012C00DCF8BD23463A46314628462C
:1046A00000F012F800BFF6E7F8B505460F461646CB
:1046B0001C46012C00DCF8BD23463246002128466A
:1046C00000F028F800BFF6E7F0B5A1B004460D46AB
:1046D00016461F46002C01D121B0F0BD802101A853
:1046E000FBF749FD68460571012201A9204601F04A
:1046F000B1F980210648FBF73EFD3A4604492046C1
:1047000001F086F902493046FBF74DFD00BFE3E7B3
:1047100054050020F0B5A1B005460E4617461C46CC
:10472000002D01D121B0F0BD3046803069460871BE
:10473000002C05DD2246394601A80130FBF702FDB9
:10474000601CC2B201A9284601F084F9022208497E
:10475000284601F05DF980210548FBF70CFD022396
:10476000034A31462846FFF7AFFF00BFDAE70000F3
:104770005405002010B58AB0044600210991204656
:1047800000F06EFC384801780991012309AA06213E
:104790002046FFF7BFFF00210991012309AA062146
:1047A0002046FFF791FF314801780991012309AABA
:1047B00007212046FFF7AEFF2D480178099101231C
:1047C00009AA08212046FFF7A5FF2F2109910123FF
:1047D00009AA0B212046FFF79DFF20210991012303
:1047E00009AA0C212046FFF795FF2248017809917C
:1047F000012309AA1D212046FFF78CFF1E480178DE
:104800000991012309AA1E212046FFF783FF2046B4
:1048100000F031FC022301AA01212046FFF754FFDA
:10482000204600F02BF8012301AA12212046FFF7B1
:104830004BFFFA210991012309AA11212046FFF714
:1048400069FFAF210991012309AA40212046FFF702
:1048500061FF87210991012309AA19462046FFF724
:1048600059FF0AB010BD00003400002035000020C0
:1048700036000020370000203800002038B50446FC
:10488000FF20009001236A4612212046FFF742FFD5
:1048900001236A4612212046FFF716FF38BD0000AB
:1048A00038B50446204600F0DBFB204600F070F9E6
:1048B0001E480178009101236A4606212046FFF731
:1048C00029FF1B480178009101236A4607212046F1
:1048D000FFF720FF17480178009101236A4608215D
:1048E0002046FFF717FF2F21009101236A460B2175
:1048F0002046FFF70FFF2021009101236A460C217B
:104900002046FFF707FF0C480178009101236A4613
:104910001D212046FFF7FEFE084801780091012383
:104920006A461E212046FFF7F5FE38BD3400002000
:10493000350000203600002037000020380000201D
:1049400010B58AB00446204600F08AFB022301AA73
:1049500001212046FFF7B8FE204600F019F98348F0
:1049600001780991012309AA06212046FFF7D2FE0A
:104970007F4801780991012309AA07212046FFF702
:10498000C9FE7C4801780991012309AA0821204623
:10499000FFF7C0FE784801780991012309AA09218F
:1049A0002046FFF7B7FE09210991012309AA0A2130
:1049B0002046FFF7AFFE2F210991012309AA0B2101
:1049C0002046FFF7A7FE20210991012309AA0C2107
:1049D0002046FFF79FFE00210991012309AA0D211E
:1049E0002046FFF797FE80210991012309AA0E2195
:1049F0002046FFF78FFE00210991012309AA0F210C
:104A00002046FFF787FE00210991012309AA112101
:104A10002046FFF77FFEFF210991012309AA1221F9
:104A20002046FFF777FE554801780991012309AA2E
:104A30001D212046FFF76EFE5148017809910123A0
:104A400009AA1E212046FFF765FEFF2109910123D7
:104A500009AA1F212046FFF75DFE4A480178099107
:104A6000012309AA20212046FFF754FE4648017879
:104A70000991012309AA21212046FFF74BFE282195
:104A80000991012309AA22212046FFF743FE202194
:104A900001A8FBF770FBFF210991012309AA23213B
:104AA0002046FFF737FE202101A8FBF764FB002119
:104AB0000991012309AA24212046FFF72BFE20217A
:104AC00001A8FBF758FB314801780991012309AA95
:104AD00026212046FFF71EFE202101A8FBF74BFBF5
:104AE00000210991012309AA40212046FFF712FE67
:104AF00000210991012309AA41212046FFF70AFE5E
:104B000009210991012309AA4B212046FFF702FE42
:104B100013210991012309AA61212046FFF7FAFD1B
:104B20000E210991012309AA62212046FFF7F2FD17
:104B30005B210991012309AA63212046FFF7EAFDC1
:104B4000DB210991012309AA64212046FFF7E2FD38
:104B5000D0210991012309AA70212046FFF7DAFD2F
:104B6000204600F088FA0AB010BD00003400002092
:104B700035000020360000203A00002037000020D9
:104B8000380000203B0000203C00002039000020BD
:104B900038B504468820009001236A46194620460D
:104BA000FFF7B8FD38BD000010B58AB004460021FB
:104BB0000991202101A8FBF7DEFA2046FFF7C0FE8D
:104BC000022301AA26212046FFF77EFD68460079D0
:104BD0000830C1B20991012309AA26212046FFF716
:104BE00099FD02210991012309AA40212046FFF7DE
:104BF00091FD2046FFF742FE1F210991012309AADA
:104C000011212046FFF786FD022301AA0F2120462D
:104C1000FFF75AFD012301AA0D212046FFF77AFD77
:104C20000D210991012309AA19462046FFF772FDBB
:104C3000202101A8FBF79FFA00201149087011E01C
:104C4000022301AA18212046FFF73EFD684600799D
:104C500004210840042800D108E009480078401CDD
:104C600007490870064800780328E9DB00BF0448BC
:104C70000078032802DB00200AB010BD0120FBE70A
:104C80006400002070B58AB006460C4615464B20DD
:104C9000FBF74FFA002C02D100200AB070BD30465D
:104CA000FFF74EFE87210991012309AA4D213046C5
:104CB000FFF730FD80217348FBF75DFA0223714A4C
:104CC0004D213046FFF700FD00210991012309AA7B
:104CD00024213046FFF71EFD80216A48FBF74BFA7E
:104CE0000223684A24213046FFF7EEFC0995012390
:104CF00009AA22213046FFF70DFD80216148FBF70C
:104D00003AFA02235F4A22213046FFF7DDFC802178
:104D10005C48FBF730FA02235A4A0E213046FFF76F
:104D2000D3FC5848027801230D213046FFF7F2FCEE
:104D300000205449087080215248FBF71CFA80205B
:104D40005049087001230A460E213046FFF7E2FC65
:104D500080214C48FBF70FFA02234A4A0E213046C5
:104D6000FFF7B2FC0123474A0D213046FFF7D2FC82
:104D700080214448FBF7FFF90223424A0D213046C7
:104D8000FFF7A2FC72B62B46224600213046FFF701
:104D90008BFC62B6304600F06EF941210991012387
:104DA00009AA40213046FFF7B5FC80213548FBF7C2
:104DB000E2F90223334A40213046FFF785FC3046B2
:104DC000FFF75CFDF7210991012309AA1121304663
:104DD000FFF7A0FC80212B48FBF7CDF90223294ADD
:104DE00011213046FFF770FC202101A8FBF7C3F921
:104DF00080212448FBF7BFF90223224A01213046D3
:104E0000FFF762FC8B210991012309AA194630465C
:104E1000FFF780FC80211B48FBF7ADF90223194AFC
:104E200001213046FFF750FC0223164A1E2130466E
:104E3000FFF74AFC0223134A0E213046FFF744FCD9
:104E40001048027801230D213046FFF763FC0CE087
:104E5000012301AA12213046FFF736FC684600798B
:104E600008210840082800D100E0F1E700BF8420B5
:104E70000990012309AA4D213046FFF74BFC012080
:104E80000BE700005405002000B585B00320039017
:104E9000012001901020009069463148FCF752FB38
:104EA00003200390012001902020009069462C48A7
:104EB000FCF748FB03200390012001900090694615
:104EC0002848FCF73FFB03200390012001900220BB
:104ED000009069462348FCF735FB0320039001202E
:104EE00001904020009069461E48FCF72BFB0320F0
:104EF0000390012001908020009069461948FCF73A
:104F000021FB032003900120019000906946144882
:104F1000FCF718FB012211461148FCF712FC032094
:104F20000390012001900220009069460C48FCF794
:104F300009FB012202210A48FCF703FC032003902D
:104F4000012001900420009069460548FCF7FAFA18
:104F5000012204210248FCF7F4FB05B000BD00006B
:104F6000000800500004005010B50122D1030520B4
:104F70000007FCF7E6FB10BDF8B505460C4601211D
:104F8000284600F0B3FB0020009000260027FCF725
:104F9000DFFB064658E07F1C02232F4A12212846D9
:104FA000FFF792FB2C48007840210840402840D170
:104FB0002948007820210840202803D12846FFF7FF
:104FC0005DFC41E080212448FBF7D5F80223224A0A
:104FD00010212846FFF778FB01231F4A0D212846A0
:104FE000FFF798FB80211C48FBF7C5F801231A4AFC
:104FF00019212846FFF768FB02236A461321284639
:10500000FFF762FB80211448FBF7B5F86846037888
:10501000114A00212846FFF737FB684602780E49FF
:105020002046FBF78FF82846FFF728FC68460078F3
:10503000F8BD0948007880210840802803D128461F
:10504000FFF71CFC00E000BFFCF782FB801B03495C
:105050008842A0D30020EBE754050020B80B0000E5
:1050600038B504468820009001236A461946204638
:10507000FFF750FB38BD38B5044689200090012366
:105080006A4619462046FFF745FB38BD70B5044611
:105090000D4616460021204600F028FB20210B4833
:1050A000FBF769F80223094A12212046FFF70CFB9F
:1050B0002046FFF7E3FB00200549087032462946E9
:1050C0002046FFF7DFFD012070BD000054050020E1
:1050D0006800002070B514250C4C0FE00C48FBF75D
:1050E000CFFE05280AD10A48FBF7CEFE0949086021
:1050F00008460068844201D9084604682846691EAB
:10510000CDB20028EAD1204670BD00007017000023
:105110009C070020940000207047000010B502F0AA
:1051200097FAFF20013002F041FC0120400202F01A
:105130003DFC012251020448FCF703FB012211024D
:105140000148FCF7FEFA10BD00040050F8B5044613
:1051500002F0C8FD112001F04BFF01F0C7FE2070E6
:1051600001F0F6FE01F0C2FE607001F0F1FE65781C
:10517000022606E001F0BAFEA05501F0E9FE701C1F
:10518000C6B2A81C8642F5DB01F0B0FEA91C605433
:1051900001F006FF02F0D0FD0027002003E0215CB3
:1051A000C919CFB2401CA91C8842F8DBF8B20090A4
:1051B000A81C215C0098814201D10120F8BD00208B
:1051C000FCE7000010B5002819DA1A4A03071B0F84
:1051D000083B9B089B00D2588307DC0EFF23A340AB
:1051E0009A438B071B0E8407E40EA3401A43114B0E
:1051F0000407240F083CA408A4001A5118E00E4A22
:1052000003231B02D21883089B00D2588307DC0EAD
:10521000FF23A3409A438B071B0E8407E40EA34091
:105220001A43054B032424021B198408A4001A51B5
:1052300010BD00001CED00E000E100E0FEB50546F9
:1052400000270020019017E2684600890607360F04
:10525000002E7DD16846008910210840002830D1F9
:1052600028680088FD490840296808802C462834B1
:1052700028684030008A2178C9004018801C01222B
:10528000920229688918405A8005800DA061A169A1
:1052900020694018206100212846FCF7A0FB24204B
:1052A000405D0028CFDD60690028CCD12420405D1E
:1052B00080210843296840318881002124204155FC
:1052C000DAE12C46B4342868018801916846808868
:1052D0000121C9020840002823D028684030008AF4
:1052E0002178C9004018801D01229202296889187E
:1052F000405A8005800DA061218B8BB2A288214687
:105300009031286800F0C3F9286800884004400CF8
:10531000D24980310840296808802846FDF71FF9E6
:10532000AAE1684680880121C903084000288AD084
:10533000286800884004400CC8498031084029682A
:10534000088028684030008A2178C900401800E0B1
:1053500055E0801D0122920229688918405A800573
:10536000800DA061A06900280BD0208B83B2A28899
:1053700021692868009000F08AF9A1692069401825
:10538000206100212846FCF73AFB28684030008A5B
:10539000801D01239B022A68D2188118E2683E2AE8
:1053A0000FD9E268D202100C227BD206D20E002A5C
:1053B00001D1421E90B282020123DB031A430A800C
:1053C0000CE0E268D203100C227BD207D20F002A35
:1053D00001D0421C90B28206120C0A80296809880A
:1053E0009F4A1140084601210903484049004840AE
:1053F00089000143802211432A6811803CE1B100F9
:105400002868415A0191684680880121C9030840F3
:1054100000287DD0B1002868405A4004400C8F49D4
:1054200080310840B200296888521C207043294608
:10543000B4314418A07A00281BD128684030008A73
:105440002178C9004018801D01229202296889181C
:10545000405A8705BF0D002F4ED0A28821693B46D8
:10546000286800F014F93A467E482169FAF76AFE86
:1054700042E0217889002868405A012189030840C8
:10548000002816D028684030008A2178C9004018CA
:10549000801C0122920229688918405A8705BF0D95
:1054A000002F1CD0E28821693B46286800F0EFF805
:1054B00015E028684030008A2178C9004018801D16
:1054C0000122920229688918405A8705BF0D002FD2
:1054D00005D0228921693B46286800F0D8F8217858
:1054E00089002868405A5D49803108405E49084378
:1054F0002278920029688852A069C019A0612069A9
:10550000C01920616069002804D0E068B84200E05A
:105510000BE004D921782846FCF771FA05E02178E0
:10552000284663692269FCF71FFD68468088802150
:10553000084000287ED01C2070432946283144189A
:10554000B1002868405A45490840B200296888528D
:10555000A07A00281AD128684030008A2178C90032
:105560004018801C0122920229688918405A80053F
:10557000800DA061A069002853D0218B8BB2A28836
:1055800021690091286800F095F84AE021788900A7
:105590002868405A4021084000281AD02868403026
:1055A000008A2178C9004018801C012292022968D3
:1055B0008918405A8005800DA061A069002822D07A
:1055C000218B8BB2E28821690091286800F072F883
:1055D00019E028684030008A2178C9004018801DF1
:1055E0000122920229688918405A8005800DA06125
:1055F000A069002807D0208B83B2228921692868FE
:10560000009000F057F8217889002868405A134923
:10561000803108401249F13108432278920029680C
:10562000885228684030008A2178C9004018801CC0
:10563000012200E020E0920229688918405A800582
:10564000800DA061A169206940182061606900286F
:105650000CD121782846FCF7C2F90DE00F8F00002D
:105660008FBF0000F0090020C0800000217828468C
:1056700063692269FCF7A0FD2868403080880290A9
:105680000121C9030840002800D0DDE5FEBDF8B5C2
:105690005E1C7610009616180127BF02F519009CB3
:1056A00005E02E880E80AD1C491C491C641E002C90
:1056B000F7D1F8BDFFB581B0049E761C7610009638
:1056C000039E36180127BF02F419009A08E00B78F0
:1056D000491C0E7835021D432580A41C491C521E0E
:1056E000002AF4D105B0F0BD70470000184B0268E5
:1056F0009A420DD1012905D11022164B9A61202220
:105700009A6224E01022134B9A6220229A611EE0D2
:10571000114B02689A420DD1012905D101220F4B8C
:105720009A6102229A6212E001220C4B9A620222D2
:105730009A610CE0012905D14022084B9A61802230
:105740009A6204E04022054B9A6280229A61704777
:1057500000300140000800500038004000040050B4
:10576000014600BFF020084000110A2358430246BA
:105770000807000F8018C0B270470146002203E0FE
:10578000521C08460A38C1B20A29F9DA1007000E7D
:105790000843704770B504462068C068402108403F
:1057A000002815D1401E2168C860FBF7D1FF0546CF
:1057B00008E0FBF7CDFF401B7D21C900884201D9DD
:1057C000032070BD2068C068402108400028F0D048
:1057D0000020F6E710B50A480A4908600020486032
:1057E0007F2108488160FF21C16000210161816142
:1057F000C161FDF76FFD002801D0FAF7CBFF10BDA6
:1058000000280040F807002010B502F053F80446C5
:10581000FDF7D8FC10BD000010B586B00446217815
:105820006846C17561784175A1788175012101755E
:10583000012205A90E48FDF7DFFD002801D0FAF787
:10584000A9FFE17868460170217941706179817022
:10585000002101720020039004900122694604484F
:10586000FDF760FE002801D0FAF794FF06B010BDE6
:10587000F80700206C200D49087080200C49087042
:1058800000200C49087072200B49087094200B49C5
:10589000087000200A4908708F200A49087001200A
:1058A000094908706E2009490870704734000020CB
:1058B000350000203600002037000020380000208E
:1058C000390000203A0000203B0000203C0000206E
:1058D00010B50022012109030148FBF732FF10BD7A
:1058E0000004005010B5012211030248FBF729FF04
:1058F00010BD000000040050FFB581B004460E4604
:105900001D460027FBF724FF0746039800283FD1D8
:1059100033E0681C002830D0002D04D0FBF718FFBE
:10592000C01BA84229D920684068E021884321682B
:105930004860206800684021884321680860012190
:105940004903A06A88420DD100BF206800688843DF
:105950002168086020680068012149030843216824
:10596000086000BF01215120015500BF00215020D7
:10597000015500BF032005B0F0BD206880683040AD
:10598000B04201D1012000E000200028C1D03DE05C
:1059900032E0681C00282FD0002D04D0FBF7D8FE81
:1059A000C01BA84228D920684068E02188432168AC
:1059B0004860206800684021884321680860012110
:1059C0004903A06A88420DD100BF2068006888435F
:1059D00021680860206800680121490308432168A4
:1059E000086000BF01215120015500BF0021502057
:1059F000015500BF0320BEE7206880683040B042F8
:105A000001D1012000E000200028C2D10020B2E72F
:105A1000F8B505460E461446002C01DC0020F8BD02
:105A200000277D23DB00224631462846FDF72EFF66
:105A30000746002F07D00648FDF73BFE0448FDF758
:105A400055FE0020EBE7FFF74DFF0120E7E70000E0
:105A500064010020F8B504460D4616460027FFF7FE
:105A600037FF01231B03324629462046FEF744F840
:105A70000746002F05D02046FDF71BFE2046FDF708
:105A800035FEF8BD7047000010B56C20264908703F
:105A900080204870002088707220C870942008719F
:105AA000002048716E202149087001201E49C871EC
:105AB00008221F48FAF790FF01221C491D48FAF7F7
:105AC0008BFF02201C49087000204870112088704C
:105AD000C8701A2019490870AA20487002208870DE
